S00B00004144432E7372656351
S11300000C942A000C9434000C9434000C943400A6
S11300100C9434000C9434000C9434000C9434008C
S11300200C9434000C9434000C9434000C9434007C
S11300300C9434000C9434000C9434000C9434006C
S11300400C9434000C9434000C9434000C9434005C
S11300500C94340011241FBECFE5D8E0DEBFCDBF21
S11300600E949B010C94C5010C9400003E9A3F9899
S11300703D98389A39983A983B983C98309A319AF6
S1130080329A3398359A80B78F7D80BF80B78F7B43
S113009080BF80B78F7780BF379A0895CF93DF935F
S11300A0EC010E943600369A349BFECF84B195B1A0
S11300B099838883DF91CF9108954423B9F1413026
S11300C009F06BC0813089F028F08230C9F08330A8
S11300D011F108952BB381E090E002C0880F991FBD
S11300E06A95E2F7822B8BBB089528B381E090E0F8
S11300F002C0880F991F6A95E2F7822B88BB089586
S113010025B381E090E002C0880F991F6A95E2F759
S1130110822B85BB089522B381E090E002C0880F52
S1130120991F6A95E2F7822B82BB0895813091F082
S113013028F08230D9F0833029F108952BB381E07F
S113014090E002C0880F991F6A95E2F78095822398
S11301508BBB089528B381E090E002C0880F991FFB
S11301606A95E2F78095822388BB089525B381E0E0
S113017090E002C0880F991F6A95E2F78095822368
S113018085BB089522B381E090E002C0880F991FD7
S11301906A95E2F78095822382BB0895CF93C82F96
S11301A041E061E081E00E945D0040E062E081E0C6
S11301B00E945D0040E063E081E00E945D008C2FBE
S11301C0807F8BBB41E063E081E00E945D008FE9AA
S11301D09FE00197F1F700C0000040E063E081E098
S11301E00E945D00C295C07FCBBB41E063E081E02B
S11301F00E945D008FE99FE00197F1F700C00000C5
S113020040E063E081E00E945D008FE19EE401979D
S1130210F1F700C00000CF9108958F929F92AF92A2
S1130220BF92CF92DF92EF92FF920F931F938B01B5
S11302309C01672B682B692B09F453C061E070E0C3
S113024080E090E00F2EFAE08F2E912CA12CB12C9F
S1130250F02DDC01CB01880F991FAA1FBB1F6C0175
S11302607D01CC0CDD1CEE1CFF1CCC0CDD1CEE1C3B
S1130270FF1CC80ED91EEA1EFB1EC901B801A50148
S113028094010E94A3016C0D7D1D8E1D9F1D022FE4
S1130290132F242F352F0115110521053105C9F61A
S11302A06230710581059105E0F00F2EFAE08F2E82
S11302B0912CA12CB12CF02DA50194010E94A30135
S11302C0E22EF32E042F152F80E3860F0E94CE001A
S11302D06E2D7F2D802F912F623071058105910540
S11302E058F71F910F91FF90EF90DF90CF90BF9040
S11302F0AF909F908F900895CF93DF9300D0CDB7A8
S1130300DEB71A821982CE0101960E944E004981FD
S11303105A8124EF31E0429FC001439F900D529FC8
S1130320900D1124892F9927869586950F900F900B
S1130330DF91CF9108950E947C01BC0180E090E0A0
S11303400E940D01F8CFA1E21A2EAA1BBB1BFD01CE
S11303500DC0AA1FBB1FEE1FFF1FA217B307E407A0
S1130360F50720F0A21BB30BE40BF50B661F771FF8
S1130370881F991F1A9469F76095709580959095D8
S11103809B01AC01BD01CF010895F894FFCF9D
S9030000FC
