S00B00004144432E7372656351
S11300000C942A000C9447000C9447000C9447006D
S11300100C9447000C9447000C9447000C94470040
S11300200C9447000C9447000C9447000C94470030
S11300300C9447000C9447000C9447000C94470020
S11300400C94D5030C9447000C9447000C9447007F
S11300500C94470011241FBECFE5D8E0DEBFCDBF0E
S113006010E0A0E6B0E0E8E4F9E002C005900D92EB
S1130070A23BB107D9F720E0A2EBB0E001C01D928A
S1130080AD3BB207E1F70E9465030C94A2040C9403
S113009000003E9A3F983D98389A39983A983B9890
S11300A03C98309A319A329A339A8FB780688FBFCE
S11300B0359A80B78F7D80BF80B78F7B80BF80B734
S11300C08F7780BF379A369A0895442379F1413067
S11300D009F05FC0813079F028F08230A9F08330D4
S11300E0E1F008952AB381E090E001C0880F6A9599
S11300F0EAF7822B2CC027B381E090E001C0880F7F
S11301006A95EAF7822B2EC024B381E090E001C007
S1130110880F6A95EAF7822B30C021B381E090E022
S113012001C0880F6A95EAF7822B32C0813089F0CA
S113013028F08230C9F0833011F108952AB381E0A8
S113014090E001C0880F6A95EAF7809582238ABB04
S1130150089527B381E090E001C0880F6A95EAF71B
S11301608095822387BB089524B381E090E001C089
S1130170880F6A95EAF78095822384BB089521B39A
S113018081E090E001C0880F6A95EAF780958223A8
S113019081BB0895442379F1413009F05FC0813077
S11301A079F028F08230A9F08330E1F008952BB380
S11301B081E090E001C0880F6A95EAF7822B2CC099
S11301C028B381E090E001C0880F6A95EAF7822B9A
S11301D02EC025B381E090E001C0880F6A95EAF74C
S11301E0822B30C022B381E090E001C0880F6A9571
S11301F0EAF7822B32C0813089F028F08230C9F0CE
S1130200833011F108952BB381E090E001C0880F91
S11302106A95EAF7809582238BBB089528B381E021
S113022090E001C0880F6A95EAF78095822388BB25
S1130230089525B381E090E001C0880F6A95EAF73C
S11302408095822385BB089522B381E090E001C0AC
S1130250880F6A95EAF78095822382BB0895FA0194
S1130260813041F028F0823039F0833039F008953C
S113027089B305C086B303C083B301C080B390E0E3
S113028002C0959587956A95E2F7817080830895F9
S1130290813081F028F08230B9F08330F9F008958C
S11302A02BB381E090E001C0880F6A95EAF7822BB6
S11302B08BBB089528B381E090E001C0880F6A9554
S11302C0EAF7822B88BB089525B381E090E001C052
S11302D0880F6A95EAF7822B85BB089522B381E0E3
S11302E090E001C0880F6A95EAF7822B82BB0895DB
S11302F041E060E082E00E94650041E061E082E06C
S11303000E94650041E062E082E00E94650041E0F5
S113031063E082E00E94650040E064E082E00E94C5
S1130320650040E065E082E00E94650040E066E030
S113033082E00E94650040E067E082E00E94650080
S113034064E082E00E94480165E082E00E94480186
S113035066E082E00E94480167E082E00E94480172
S113036041E060E082E00E94CA0041E061E082E096
S11303700E94CA0041E062E082E00E94CA0041E0BB
S113038063E082E00C94CA00BF92CF92DF92EF92B6
S1130390FF920F931F93CF93DF931F92CDB7DEB7D6
S11303A0198294E6C92E90E0D92E00E010E040E0D6
S11303B0612F82E00E94CA00E12CF12C84E0B82E67
S11303C0BE0CAE014F5F5F4F6B2D82E00E942F0188
S11303D08981811115C0F601EE0DFF1D008189810F
S11303E0811108C0AE014F5F5F4F6B2D82E00E9408
S11303F02F01F5CF8FE39CE90197F1F700C00000CE
S11304009FEFE91AF90A84E0E816F104B9F641E02D
S1130410612F82E00E94CA001F5F94E0C90ED11CC4
S1130420143029F6802F0F90DF91CF911F910F91F7
S1130430FF90EF90DF90CF90BF900895CF93C82F97
S113044040E061E081E00E94CA0040E062E081E0B7
S11304500E94CA0040E063E081E00E94CA008BB3BE
S11304609C2F907F8F70892B8BBB41E063E081E0F0
S11304700E94CA008FE99FE00197F1F700C00000D5
S113048040E063E081E00E94CA002BB330E1C39FE7
S1130490C0011124922F9F70892B8BBB41E063E034
S11304A081E00E94CA008FE99FE00197F1F700C044
S11304B0000040E063E081E00E94CA008FE19EE416
S11304C00197F1F700C00000CF91089541E061E089
S11304D081E00E94650041E062E081E00E946500E5
S11304E041E063E081E00E94650041E064E080E077
S11304F00E94650041E065E080E00E94650041E003
S113050066E080E00E94650041E067E080E00E94D0
S113051065002FEF81EE94E0215080409040E1F798
S113052000C0000083E30E941E0282E30E941E02B8
S113053088E20E941E028CE00E941E0281E00E945A
S11305401E0286E00E941E0282E00C941E02CF93DB
S1130550C82F41E061E081E00E94CA0040E062E00F
S113056081E00E94CA0040E063E081E00E94CA008A
S11305708C2F807F8BBB41E063E081E00E94CA0046
S11305808FE99FE00197F1F700C0000040E063E0CD
S113059081E00E94CA00C295C07FCBBB41E063E00A
S11305A081E00E94CA008FE99FE00197F1F700C043
S11305B0000040E063E081E00E94CA008FE19EE415
S11305C00197F1F700C00000CF9108950F931F9396
S11305D0CF938C01C0E0F801EC0FF11D80818823DA
S11305E021F00E94A702CF5FF6CFCF911F910F9108
S11305F00895CF93DF9300D0CDB7DEB790E8998309
S113060090EC9A83FE01E80FF11D8181860F0F9013
S11306100F90DF91CF910C941E0281E00C941E0286
S11306204F925F926F927F928F929F92AF92BF92FE
S1130630CF92DF92EF92FF924B015C0161E070E098
S113064080E090E03AE0432E512C612C712C81140F
S11306509104A104B104A9F0AAE0B0E09B01AC01AB
S11306600E9488046B017C01C501B401A3019201BD
S11306700E9466046C0D7D1D8E1D9F1D49015A014B
S1130680E6CF2AE0C22ED12CE12CF12C6230710588
S11306908105910568F0A70196010E94660449014D
S11306A05A0180E3860F0E94A702B401C501EECF70
S11306B0FF90EF90DF90CF90BF90AF909F908F907E
S11306C07F906F905F904F9008950E9466020E9401
S11306D0780184E790E00E94E60266E081E00E94EF
S11306E0F90285E890E00E94E6020E94C40180932A
S11306F0B2008823D1F38334A9F10E94C40181118B
S1130700FCCF6091B8006330A0F4E62FF0E0E7542A
S1130710FF4F8091B20080836A5F81E00E94F902FA
S11307208AE20E94A7028091B8008F5F8093B8008C
S11307300FC06330D1F68091B2008093BC0069E0B1
S113074081E00E94F9028AE20E94A7021092B80096
S11307502FEF89E698E1215080409040E1F700C0F6
S11307600000C3CF0E94C4018111FCCF89EB90E04B
S11307700E9426048093B7008091B700882309F46F
S1130780B4CF0E940D038AE890E00E94E6022FEFA6
S113079083ED90E3215080409040E1F700C00000D9
S11307A00E940D030E944900E7CF1F920F920FB6DB
S11307B00F9211242F933F934F935F936F937F93E3
S11307C08F939F93AF93BF93EF93FF930E9466021F
S11307D084B195B19093B4008093B30044EF51E099
S11307E0849F9001859F300D949F300D1124832F99
S11307F0869586958093B5001092B6000E940D03ED
S113080086E990E00E94E6026091B5007091B6001E
S113081080E090E00E9410032FEF89E698E12150D8
S113082080409040E1F700C00000FF91EF91BF913C
S1130830AF919F918F917F916F915F914F913F9174
S11308402F910F900FBE0F901F901895CF92DF92AB
S1130850EF92FF920F931F93CF93DF9300D000D0BA
S1130860CDB7DEB7409160005091610060916200A5
S11308707091630049835A836B837C837C018E016E
S11308800F5F1F4F6E0185E0C80ED11C81E0F70198
S113089021917F01F80191918F01291739F00E946C
S11308A00D0383EA90E00E94E60280E00C151D052A
S11308B071F70F900F900F900F90DF91CF911F91D0
S11308C00F91FF90EF90DF90CF900895A1E21A2E40
S11308D0AA1BBB1BFD010DC0AA1FBB1FEE1FFF1FE0
S11308E0A217B307E407F50720F0A21BB30BE40B30
S11308F0F50B661F771F881F991F1A9469F7609577
S11309007095809590959B01AC01BD01CF01089530
S11309100E949304A59F900DB49F900DA49F800DF9
S1130920911D11240895A29FB001B39FC001A39FFC
S1130930700D811D1124911DB29F700D811D112414
S10B0940911D0895F894FFCF06
S1130948313233343132334134353642373839432E
S11309582A302344454E544552202620507265734C
S113096873274327005F5F5F5F0057656C636F6D94
S113097865205369720074656D706572617475726F
S1130988653A0077726F6E672070617373776F7260
S10509986400F5
S9030000FC
