S00B00004144432E7372656351
S11300000C942A000C9447000C9447000C9447006D
S11300100C9447000C9447000C9447000C94470040
S11300200C9447000C9447000C9447000C94470030
S11300300C9447000C9447000C9447000C94470020
S11300400C9447000C9447000C9447000C94470010
S11300500C94470011241FBECFE5D8E0DEBFCDBF0E
S113006010E0A0E6B0E0E8E2F9E002C005900D92ED
S1130070A23BB107D9F720E0A2EBB0E001C01D928A
S1130080AB3BB207E1F70E9489030C9492040C94F1
S113009000003E9A3F983D98389A39983A983B9890
S11300A03C98309A319A329A3398359A80B78F7D3A
S11300B080BF80B78F7B80BF80B78F7780BF379A30
S11300C0369A0895349BFECF24B135B1FC013183B7
S11300D020830895442379F1413009F05FC08130D1
S11300E079F028F08230A9F08330E1F008952AB342
S11300F081E090E001C0880F6A95EAF7822B2CC05A
S113010027B381E090E001C0880F6A95EAF7822B5B
S11301102EC024B381E090E001C0880F6A95EAF70D
S1130120822B30C021B381E090E001C0880F6A9532
S1130130EAF7822B32C0813089F028F08230C9F08E
S1130140833011F108952AB381E090E001C0880F53
S11301506A95EAF7809582238ABB089527B381E0E4
S113016090E001C0880F6A95EAF78095822387BBE7
S1130170089524B381E090E001C0880F6A95EAF7FE
S11301808095822384BB089521B381E090E001C06F
S1130190880F6A95EAF78095822381BB08954423EA
S11301A079F1413009F05FC0813079F028F0823074
S11301B0A9F08330E1F008952BB381E090E001C011
S11301C0880F6A95EAF7822B2CC028B381E090E06F
S11301D001C0880F6A95EAF7822B2EC025B381E00F
S11301E090E001C0880F6A95EAF7822B30C022B3F1
S11301F081E090E001C0880F6A95EAF7822B32C053
S1130200813089F028F08230C9F0833011F10895EB
S11302102BB381E090E001C0880F6A95EAF78095DE
S113022082238BBB089528B381E090E001C0880F3E
S11302306A95EAF78095822388BB089525B381E007
S113024090E001C0880F6A95EAF78095822385BB08
S1130250089522B381E090E001C0880F6A95EAF71F
S11302608095822382BB0895FA01813041F028F001
S1130270823039F0833039F0089589B305C086B3EC
S113028003C083B301C080B390E002C09595879505
S11302906A95E2F7817080830895813081F028F0B7
S11302A08230B9F08330F9F008952BB381E090E007
S11302B001C0880F6A95EAF7822B8BBB089528B397
S11302C081E090E001C0880F6A95EAF7822B88BB31
S11302D0089525B381E090E001C0880F6A95EAF79C
S11302E0822B85BB089522B381E090E001C0880F82
S11302F06A95EAF7822B82BB089541E060E082E0D0
S11303000E946A0041E061E082E00E946A0041E0EC
S113031062E082E00E946A0041E063E082E00E94C1
S11303206A0040E064E082E00E946A0040E065E028
S113033082E00E946A0040E066E082E00E946A0077
S113034040E067E082E00E946A0064E082E00E948C
S11303504D0165E082E00E944D0166E082E00E946A
S11303604D0167E082E00E944D0141E060E082E0DF
S11303700E94CF0041E061E082E00E94CF0041E0B2
S113038062E082E00E94CF0041E063E082E00C94EE
S1130390CF00BF92CF92DF92EF92FF920F931F9301
S11303A0CF93DF931F92CDB7DEB7198294E6C92E9F
S11303B090E0D92E00E010E040E0612F82E00E943E
S11303C0CF00E12CF12C84E0B82EBE0CAE014F5FBF
S11303D05F4F6B2D82E00E9434018981811115C029
S11303E0F601EE0DFF1D00818981811108C0AE0167
S11303F04F5F5F4F6B2D82E00E943401F5CF8FE396
S11304009CE90197F1F700C000009FEFE91AF90A8F
S113041084E0E816F104B9F641E0612F82E00E941D
S1130420CF001F5F94E0C90ED11C143029F6802F31
S11304300F90DF91CF911F910F91FF90EF90DF907C
S1130440CF90BF900895CF93C82F40E061E081E042
S11304500E94CF0040E062E081E00E94CF0040E0D3
S113046063E081E00E94CF008BB39C2F907F8F705C
S1130470892B8BBB41E063E081E00E94CF008FE9D0
S11304809FE00197F1F700C0000040E063E081E0E5
S11304900E94CF002BB330E1C39FC0011124922FDF
S11304A09F70892B8BBB41E063E081E00E94CF0009
S11304B08FE99FE00197F1F700C0000040E063E09E
S11304C081E00E94CF008FE19EE40197F1F700C024
S11304D00000CF91089541E061E081E00E946A004C
S11304E041E062E081E00E946A0041E063E081E073
S11304F00E946A0041E064E080E00E946A0041E0FA
S113050065E080E00E946A0041E066E080E00E94CD
S11305106A0041E067E080E00E946A002FEF81EE0C
S113052094E0215080409040E1F700C0000083E354
S11305300E94230282E30E94230288E20E94230293
S11305408CE00E94230281E00E94230286E00E9444
S1130550230282E00C942302CF93C82F41E061E090
S113056081E00E94CF0040E062E081E00E94CF0081
S113057040E063E081E00E94CF008C2F807F8BBB42
S113058041E063E081E00E94CF008FE99FE00197A2
S1130590F1F700C0000040E063E081E00E94CF007A
S11305A0C295C07FCBBB41E063E081E00E94CF00F5
S11305B08FE99FE00197F1F700C0000040E063E09D
S11305C081E00E94CF008FE19EE40197F1F700C023
S11305D00000CF9108950F931F93CF938C01C0E037
S11305E0F801EC0FF11D8081882321F00E94AC02F8
S11305F0CF5FF6CFCF911F910F910895CF93DF93E3
S113060000D0CDB7DEB790E8998390EC9A83FE01D1
S1130610E80FF11D8181860F0F900F90DF91CF912C
S11306200C94230281E00C9423024F925F926F9208
S11306307F928F929F92AF92BF92CF92DF92EF926E
S1130640FF924B015C0161E070E080E090E03AE0F1
S1130650432E512C612C712C81149104A104B104FA
S1130660A9F0AAE0B0E09B01AC010E9478046B0100
S11306707C01C501B401A30192010E9456046C0DD2
S11306807D1D8E1D9F1D49015A01E6CF2AE0C22E11
S1130690D12CE12CF12C623071058105910568F0B3
S11306A0A70196010E94560449015A0180E3860F6E
S11306B00E94AC02B401C501EECFFF90EF90DF9031
S11306C0CF90BF90AF909F908F907F906F905F90EE
S11306D04F900895CF93DF9300D0CDB7DEB71A8241
S11306E01982CE0101960E94620049815A8124EF49
S11306F031E0429FC001439F900D529F900D112401
S1130700892F8695869590E00F900F90DF91CF9179
S113071008950E946B020E947D0184E790E00E948C
S1130720EB0266E081E00E94FE0285E890E00E9410
S1130730EB020E94C9018093B2008823D1F3833471
S1130740A9F10E94C9018111FCCF6091B600633008
S1130750A0F4E62FF0E0E954FF4F8091B2008083CB
S11307606A5F81E00E94FE028AE20E94AC028091EC
S1130770B6008F5F8093B6000FC06330D1F68091CE
S1130780B2008093BA0069E081E00E94FE028AE22E
S11307900E94AC021092B6002FEF89E698E1215036
S11307A080409040E1F700C00000C3CF0E94C9011F
S11307B08111FCCF87EB90E00E9416048093B50072
S11307C0882309F4B6CF0E9412038AE890E00E94BD
S11307D0EB022FEF83ED90E3215080409040E1F74E
S11307E000C000000E9412030E9449000E946B0294
S11307F00E946A039093B4008093B3000E94120392
S113080086E990E00E94EB026091B3007091B4001D
S113081080E090E00E9415032FEF89E698E12150D3
S113082080409040E1F700C00000E2CFCF92DF9219
S1130830EF92FF920F931F93CF93DF9300D000D0DA
S1130840CDB7DEB7409160005091610060916200C5
S11308507091630049835A836B837C837C018E018E
S11308600F5F1F4F6E0185E0C80ED11C81E0F701B8
S113087021917F01F80191918F01291739F00E948C
S1130880120383EA90E00E94EB0280E00C151D0540
S113089071F70F900F900F900F90DF91CF911F91F0
S11308A00F91FF90EF90DF90CF900895A1E21A2E60
S11308B0AA1BBB1BFD010DC0AA1FBB1FEE1FFF1F00
S11308C0A217B307E407F50720F0A21BB30BE40B50
S11308D0F50B661F771F881F991F1A9469F7609597
S11308E07095809590959B01AC01BD01CF01089551
S11308F00E948304A59F900DB49F900DA49F800D2A
S1130900911D11240895A29FB001B39FC001A39F1C
S1130910700D811D1124911DB29F700D811D112434
S10B0920911D0895F894FFCF26
S1130928313233343132334134353642373839434E
S11309382A302344454E544552202620507265736C
S113094873274327005F5F5F5F0057656C636F6DB4
S113095865205369720074656D706572617475728F
S1130968653A0077726F6E672070617373776F7280
S1050978640015
S9030000FC
